:100000000A128A11E32F0800F400C530831203138B
:100010009F057403031D0D280E280F289F150D3012
:10002000F300FB30F200F20B1328F30B132818280F
:10003000831203131F151F191E281F281B281E08B3
:10004000F100831603131E08F0000800F80078087A
:1000500003192B282C284028F31F2F28302840284C
:100060007009FA007109FB007209FC007309FD00B8
:10007000FA0A0319FB0A0319FC0A0319FD0A4828A6
:100080007308FD007208FC007108FB007008FA009C
:100090007308720471047004031D4F2850285928F6
:1000A0000030F3000030F2000030F1000030F000CA
:1000B000D9289630F90067280130F907013003107C
:1000C000FD0CFC0CFB0CFA0CFF3E031D5F28FE3000
:1000D0007D05031D6C286D285C2887280130F907F1
:1000E0000130FA07003003180130FB070030031815
:1000F0000130FC07003003180130FD070130031008
:10010000FD0CFC0CFB0CFA0CFF3E031D7F28FF309E
:100110007D05031D8C288D286E2899280130F90251
:100120000130F4000310FA0DFB0DFC0DFD0DF40B76
:100130009228FC1B9C289D28A328023079020318D2
:10014000A228A3288E287918A628A728AF28FF3030
:10015000FA05FF30FB057F30FC05FF30FD0503107D
:10016000F90C7908F400F501F601F70118300310D5
:10017000F40DF50DF60DF70DFF3E031DB7287408BD
:10018000FA047508FB047608FC047708FD04780877
:100190000319CB28CC28D128F31FCF28D028D12869
:1001A000FD177D08F3007C08F2007B08F1007A0857
:1001B000F00008003F3083160313CB008030CA00E4
:1001C0000030C9000030C800AF01B0014708F3009B
:1001D0004608F2004508F1004408F0000030F7003E
:1001E0000030F6000030F5000030F4000A168A15E1
:1001F000B2270A128A110318FE28FF28102B102993
:10020000831603133608CB003508CA003408C9002A
:100210003308C8000130AF070318B00A0030B00738
:10022000413083120313A3002030A2000030A1004C
:100230000030A000831603134B0883120313A7009A
:10024000831603134A0883120313A60083160313AD
:10025000490883120313A500831603134808831269
:100260000313A4000A128A15BE240A128A118312EB
:100270000313230883160313B60083120313220803
:1002800083160313B5008312031321088316031387
:10029000B40083120313200883160313B300440829
:1002A00083120313CD00831603134508831203132F
:1002B000CE0083160313460883120313CF00831660
:1002C0000313470883120313D00083160313330864
:1002D00083120313CD02831603133408031C340F57
:1002E0007229752983120313CE028316031335086E
:1002F000031C350F7C297F2983120313CF02831639
:1003000003133608031C360F862989298312031329
:10031000D00283160313831203135008F3004F080F
:10032000F2004E08F1004D08F0000A168A1169200B
:100330000A128A11F31BAC297308031DAD29720838
:10034000031DAD297108031DAD2902307002031D84
:10035000A929031CAC29AD290029831603133608EB
:1003600083120313BD00831603133508831203138E
:10037000BC0083160313340883120313BB008316D7
:100380000313330883120313BA00831603134708B9
:1003900083120313C1008316031346088312031349
:1003A000C00083160313450883120313BF0083168E
:1003B0000313440883120313BE000A168A11DF21B7
:1003C0000A128A11031CE529E62900298316031362
:1003D000440883120313CD008316031345088312C8
:1003E0000313CE0083160313460883120313CF00B2
:1003F00083160313470883120313D00083160313D5
:10040000480883120313CD02831603134908031C03
:10041000490F0B2A0E2A83120313CE0283160313ED
:100420004A08031C4A0F152A182A83120313CF0205
:10043000831603134B08031C4B0F1F2A222A831217
:100440000313D00283160313831203135008F3001F
:100450004F08F2004E08F1004D08F0000A168A110C
:1004600069200A128A11F31B462A7308031D452AC4
:100470007208031D452A7108031D452A02307002C7
:10048000031D422A0318452A462AD72A8316031336
:100490004B08C7004A08C6004908C5004808C40000
:1004A000102B4130F3002030F2000030F10000301A
:1004B000F000831603134B08F7004A08F6004908BA
:1004C000F5004808F4000A128A158A200A128A11D7
:1004D000730883160313CB007208CA007108C900A1
:1004E0007008C800FF30AF070318B00AFF30B0072C
:1004F000440883120313CD008316031345088312A7
:100500000313CE0083160313460883120313CF0090
:1005100083160313470883120313D00083160313B3
:10052000480883120313CD02831603134908031CE2
:10053000490F9B2A9E2A83120313CE0283160313AC
:100540004A08031C4A0FA52AA82A83120313CF02C4
:10055000831603134B08031C4B0FAF2AB22A8312D6
:100560000313D00283160313831203135008F300FE
:100570004F08F2004E08F1004D08F0000A168A11EB
:1005800069200A128A11F31BD62A7308031DD52A83
:100590007208031DD52A7108031DD52A0230700286
:1005A000031DD22A0318D52AD62AD72A462A83160B
:1005B0000313470883120313BD0083160313460871
:1005C00083120313BC00831603134508831203131D
:1005D000BB0083160313440883120313BA00831667
:1005E00003134B0883120313C100831603134A0835
:1005F00083120313C00083160313490883120313E5
:10060000BF0083160313480883120313BE000A16A3
:100610008A11DF210A128A11031C0F2B102B512A79
:10062000831203134C0883160313A9002908AA0098
:10063000E91B1B2B1C2B212B6908A3006808A200B7
:10064000252B0630A2000030A3002308AE002208AC
:10065000AD000130AD070318AE0A0030AE076630BA
:100660002A06031D342B352B4F2BB01F382B392B6B
:10067000432B3F30CB008030CA000030C90000302F
:10068000C800AF01B001673029060319482B492B78
:100690004F2B2F08AD070318AE0A3008AE07B7017D
:1006A000B8014708BC004608BB004508BA0044082A
:1006B000B9004B08B6004A08B5004908B40048081C
:1006C000B3004A2C831603134B08F3004A08F200C8
:1006D0004908F1004808F0003C08F7003B08F60024
:1006E0003A08F5003908F4000A128A158A200A121D
:1006F0008A11730883120313B0007208AF007108E7
:10070000AE007008AD000A168A1195240A128A11EB
:1007100083120313300883160313C00083120313DC
:100720002F0883160313BF00831203132E088316AA
:100730000313BE00831203132D0883160313BD0099
:100740004008F3003F08F2003E08F1003D08F000C9
:100750000A168A11D1200A128A117108831603130E
:10076000AC007008AB004B0883120313A70083167C
:1007700003134A0883120313A600831603134908C0
:1007800083120313A500831603134808831203136F
:10079000A40083160313400883120313A3008316D7
:1007A00003133F0883120313A200831603133E08AA
:1007B00083120313A100831603133D08831203134E
:1007C000A0000A128A15BE240A128A11831203138A
:1007D0002308BD002208BC002108BB002008BA0085
:1007E000831603133C0883120313C10083160313FB
:1007F0003B0883120313C000831603133A088312C5
:100800000313BF0083160313390883120313BE00BA
:100810000A168A15DB250A128A11831203133D0872
:1008200083160313BC00831203133C0883160313BF
:10083000BB00831203133B0883160313BA00831211
:1008400003133A0883160313B9004130F300203034
:10085000F2000030F1000030F0004B08F7004A08C9
:10086000F6004908F5004808F4000A128A158A20A3
:100870000A128A11730883160313CB007208CA0088
:100880007108C9007008C8000130B7070318B80A1A
:100890000030B8073808803A83120313CD0083165E
:1008A00003132E08803A831203134D02031D5C2CA0
:1008B000831603132D083702031C5F2C602C622B58
:1008C000403083120313A300A030A2000030A10027
:1008D0000030A000831603134B0883120313A700F4
:1008E000831603134A0883120313A6008316031307
:1008F000490883120313A5008316031348088312C3
:100900000313A4000A128A15BE240A128A11831244
:100910000313230883160313C00083120313220852
:1009200083160313BF0083120313210883160313D6
:10093000BE0083120313200883160313BD003C0876
:1009400083120313BD00831603133B0883120313A2
:10095000BC00831603133A0883120313BB008316EB
:100960000313390883120313BA00831603134008D4
:1009700083120313C100831603133F08831203136A
:10098000C000831603133E0883120313BF008316AF
:1009900003133D0883120313BE000A168A11DF21D8
:1009A0000A128A110318D52CD62CE12C003083169C
:1009B0000313C0000030BF000030BE000030BD0097
:1009C0000A2D831603133C08F3003B08F2003A0893
:1009D000F1003908F0004008F7003F08F6003E0833
:1009E000F5003D08F4000A168A15B2270A128A118A
:1009F000031CFB2CFC2C0A2D831603132B18012D32
:100A0000022D0A2D0030C0000030BF000030BE00B3
:100A10000030BD00831603134008F3003F08F200C6
:100A20003E08F1003D08F0004708F7004608F600D0
:100A30004508F5004408F4000A168A11A4250A1294
:100A40008A11730883160313BC007208BB00710877
:100A5000BA007008B9003C0883120313BD00831666
:100A600003133B0883120313BC00831603133A08D5
:100A700083120313BB008316031339088312031375
:100A8000BA004130A3002030A2000030A1000030A5
:100A9000A00083160313360883120313A7008316DE
:100AA0000313350883120313A600831603133408B7
:100AB00083120313A5008316031333088312031351
:100AC000A4000A128A15BE240A128A118312031383
:100AD0002308C1002208C0002108BF002008BE0072
:100AE0000A168A11DF210A128A11031C782D792D2A
:100AF000CC2D013083160313AF070318B00A003062
:100B0000B007413083120313A3002030A20000304D
:100B1000A1000030A00083160313360883120313CC
:100B2000A70083160313350883120313A600831648
:100B30000313340883120313A50083160313330829
:100B400083120313A4000A128A15BE240A128A1102
:100B500083120313230883160313B60083120313AF
:100B6000220883160313B50083120313210883168A
:100B70000313B40083120313200883160313B30076
:100B800066302A06031DC52DC62DCC2D0130AD07BC
:100B90000318AE0A0030AE07831603133608CB00E5
:100BA0003508CA003408C9003308C8003008A1005D
:100BB0002F08A000A801A401A501B701B801402F8A
:100BC000831603134B08F3004A08F2004908F100AA
:100BD0004808F0003C08F7003B08F6003A08F5002A
:100BE0003908F4000A128A158A200A128A11730839
:100BF00083120313B0007208AF007108AE007008D2
:100C0000AD000A168A1195240A128A118312031361
:100C1000300883160313C000831203132F088316B2
:100C20000313BF00831203132E0883160313BE00A1
:100C3000831203132D0883160313BD004008F3002D
:100C40003F08F2003E08F1003D08F0000A168A1144
:100C5000D1200A128A117108803AFF0080307F0289
:100C6000031D342E0A3070020318372E382E4E2EF4
:100C7000831603134008F3003F08F2003E08F1001A
:100C80003D08F0000A168A11D1200A128A11710853
:100C900083160313AC007008AB00542E0930831682
:100CA0000313AB000030AC002808031D582E592E4A
:100CB0008A2EA11F5C2E5D2E8A2E4208903E840053
:100CC0002E30831780000130C2070318C30A00309A
:100CD000C307FF30B1070318B20AFF30B207013073
:100CE000A8008A2E4208903E84003030831780008E
:100CF0000130C2070318C30A0030C307FF30B10731
:100D00000318B20AFF30B207FF30A4070318A50A80
:100D1000FF30A50724082504031D8F2E902E722E68
:100D20004208903E84002B08303E8317800001303B
:100D3000C2070318C30A0030C307FF30B107031806
:100D4000B20AFF30B2074B0883120313A7008316C1
:100D500003134A0883120313A600831603134908DA
:100D600083120313A5008316031348088312031389
:100D7000A40083160313400883120313A3008316F1
:100D800003133F0883120313A200831603133E08C4
:100D900083120313A100831603133D088312031368
:100DA000A0000A128A15BE240A128A1183120313A4
:100DB0002308BD002208BC002108BB002008BA009F
:100DC000831603133C0883120313C1008316031315
:100DD0003B0883120313C000831603133A088312DF
:100DE0000313BF0083160313390883120313BE00D5
:100DF0000A168A15DB250A128A11831203133D088D
:100E000083160313BC00831203133C0883160313D9
:100E1000BB00831203133B0883160313BA0083122B
:100E200003133A0883160313B9004130F30020304E
:100E3000F2000030F1000030F0004B08F7004A08E3
:100E4000F6004908F5004808F4000A128A158A20BD
:100E50000A128A11730883160313CB007208CA00A2
:100E60007108C9007008C800FF30A0070318A10A64
:100E7000FF30A1070130B7070318B80A0030B807E0
:100E80003808803A83120313CD00831603132E080B
:100E9000803A831203134D02031D522F831603134E
:100EA0002D0837020318552F562F652F831603136D
:100EB0004308803AFF0080307F02031D612F4B30D2
:100EC0004202031C642F652FE02D4F30831603135D
:100ED000B7000030B8003708903E840083178001C7
:100EE000903083120313CD0083160313420883123C
:100EF0000313CD02831603133708831203134D0720
:100F0000F0009030F100831603134308F300420809
:100F1000F2000A168A15BA250A128A1183160313DB
:100F200042083702C2004308031C430A3802C300C8
:100F30004108031D9C2F9E2F01309F2F00308312EC
:100F40000313CD00CE014D0883160313B70083129F
:100F500003134E0883160313B80041080319B12F79
:100F6000B22FBE2FFF30C2070318C30AFF30C307DA
:100F70004208903E84004108831780003708B10280
:100F80003808031CB203B202831203134608A800F8
:100F90004708A900831603134208903E83120313E7
:100FA000AA0083160313320883120313AC008316BE
:100FB0000313310883120313AB000A168A15742732
:100FC0000A128A11080083120313EA01EB01EC01F3
:100FD000ED01EE018313E2308400EA300A168A152F
:100FE00057250A128A11831790308400F0300A16B0
:100FF0008A1557250A128A1183010A128A155A2A5C
:1010000073087204710470040319072808280A2859
:101010008030F3060800831203136D08A5006C08E6
:10102000A4006B08A3006A08A2007308A500720858
:10103000A4007108A3007008A2002208F40023088D
:10104000F5002408F6002508F70017300310F70C08
:10105000F60CF50CF40CFF3E031D2628FF3074053A
:10106000A00000307505A10020082104031D3928C7
:101070003A285D282208F4002308F5002408F60029
:101080002508F70001300310F40DF50DF60DF70DEE
:10109000FF3E031D43287708760475047404031D7E
:1010A0005228532858280230F0000030F1008928D7
:1010B0000330F0000030F1008928200A2104031DCC
:1010C0006228632885282208F4002308F5002408F4
:1010D000F6002508F70009300310F40DF50DF60DA4
:1010E000F70DFF3E031D6C28770876047504740421
:1010F00003197B287D2801307E280030F800F90193
:101100007808F0007908F10089280430F0000030F8
:10111000F1000800770883120313A4008030A405AF
:101120007708F8007807AB00F61F972898289928C9
:101130002B142B0803199D289E28AE282B0A031D6B
:10114000A228A328AB280030F7000030F6000030BA
:10115000F5000030F400F617F701B6280030F7006C
:101160000030F6000030F5000030F40073088039DC
:10117000A4067308F8007807AC00F21FC028C12845
:10118000C2282C142C080319C628C728D7282C0AD3
:10119000031DCB28CC28D4280030F3000030F20007
:1011A0000030F1000030F000F217F301DF280030CA
:1011B000F3000030F2000030F1000030F00073085E
:1011C000720471047004031DE628E728FE2800302D
:1011D000F7000030F6000030F5000030F4008030F9
:1011E000F6047F30F7042408F7047708F300760844
:1011F000F2007508F1007408F000592A2B08031D4D
:10120000022903290C290030F3000030F2000030DD
:10121000F1000030F000592A2B08F800F901790894
:10122000FB002C087802FA00031CFB037A087F3EBF
:10123000A5007B080318013E003EA6007708A30026
:101240007608A2007508A1007408A0000030F7001D
:101250000030F6000030F5000030F4000030AA0045
:101260000030A9000030A8000030A700AC0186299A
:101270002C0803193C293D295D290130F800031091
:10128000A00DA10DA20DA30DF80B3F290130F80010
:101290000310F40DF50DF60DF70DF80B4829AA1FF4
:1012A00052295329542974140130F8000310A70D52
:1012B000A80DA90DAA0DF80B562973082302031DCA
:1012C0006B2972082202031D6B2971082102031D7C
:1012D0006B2970082002031C6E296F2984292A17A4
:1012E0007008A0027108031C710F77297829A102E8
:1012F0007208031C720F7D297E29A2027308031C49
:10130000730F83298429A3020130AC071A302C0201
:10131000031C8B298C29382923082204210420044A
:10132000031993299429B3292714B3290130F8000C
:101330000310F40DF50DF60DF70DF80B9829AA1F03
:10134000A229A329A42974140130F8000310A70DC1
:10135000A80DA90DAA0DF80BA629FF30A5070318A3
:10136000A60AFF30A607F61FB629B7299629AC01B1
:10137000AA1FBB29BC29D829FF302705F800FF3058
:101380002805F900FF302905FA007F302A05FB0007
:101390007B087A04790478040319CF29D029D3294A
:1013A0000130AC00D829741CD629D729D829D029D6
:1013B0002C080319DC29DD290E2A0130F40700303E
:1013C00003180130F507003003180130F60700302C
:1013D00003180130F707771CEE29EF290E2A74084D
:1013E000F8007508F9007608FA007708FB0001306C
:1013F000FC007B0DFB0CFA0CF90CF80CFC0BF9292A
:101400007B08F7007A08F6007908F5007808F40000
:101410000130A5070318A60A0030A6072608803A5F
:10142000FF0080307F02031D172AFF302502031CB6
:101430001A2A1B2A292AFF3083120313A500003021
:10144000A6000030F7000030F6000030F500003054
:10145000F400831203132608803AFF0080307F02D5
:10146000031D342A013025020318372A382A452A59
:1014700083120313A501A6010030F7000030F60027
:101480000030F5000030F400A40183120313250896
:10149000AB002B1C4C2A4D2A4F2AF617512A7F30BD
:1014A000F6052B08F8000310780CF7002408F70461
:1014B000F5280800FF308316031385008601081005
:1014C0000710831203138601081007100A168A15E5
:1014D00071260A128A150A168A155F250A128A15BC
:1014E0000A168A1568250A128A1500300A128A110E
:1014F00004200A128A15710883160313DB00700892
:10150000DA003E3083120313A300F930A200DB306F
:10151000A1002330A000831603135A08F0005B08D3
:10152000F100F201F30100300A128A1126200A129A
:101530008A15730883120313A7007208A6007108A6
:10154000A5007008A4000A128A15BE240A128A1582
:1015500083120313230883160313E100831203137A
:10156000220883160313E000831203132108831655
:101570000313DF0083120313200883160313DE0016
:1015800001300A128A1104200A128A157108831682
:101590000313DD007008DC00610883120313BD0033
:1015A00083160313600883120313BC00831603130E
:1015B0005F0883120313BB00831603135E088312B4
:1015C0000313BA004130C100C830C0000030BF0072
:1015D0000030BE000A168A11DF210A128A1503188C
:1015E000F22AF32AFC2A0030F000F1000A168A15CC
:1015F0009D250A128A156B2B83160313610883122B
:101600000313BD0083160313600883120313BC0089
:10161000831603135F0883120313BB00831603139F
:101620005E0883120313BA004130C100F030C000DD
:101630000030BF000030BE000A168A11DF210A12F6
:101640008A150318242B252B2F2BFA30F00000309D
:10165000F1000A168A159D250A128A156B2B83162E
:101660000313610883120313BD008316031360087C
:1016700083120313BC00831603135F088312031342
:10168000BB00831603135E0883120313BA004230B3
:10169000C1000C30C0000030BF000030BE000A1690
:1016A0008A11DF210A128A150318572B582B622B37
:1016B000F430F0000130F1000A168A159D250A1257
:1016C0008A156B2B2030F0000330F1000A168A15C2
:1016D0009D250A128A150130831603135D02F4302A
:1016E00003195C020318752B762B7A2B83120313D4
:1016F00008147D2B8312031308104130BD00F03015
:10170000BC000030BB000030BA0083160313610830
:1017100083120313C100831603136008831203139B
:10172000C000831603135F0883120313BF008316E0
:1017300003135E0883120313BE000A168A11DF2109
:101740000A128A150318A52BA62BAA2B83120313A2
:101750000714AD2B83120313071080300A168A1565
:10176000ED260A128A15E03083160313D4000130E7
:10177000D5006108D9006008D8005F08D7005E086E
:10178000D6000A168A1547270A128A15E030F50096
:101790000130F6000A168A1524260A128A15C0306E
:1017A0000A168A15ED260A128A1541308312031390
:1017B000BD00F030BC000030BB000030BA00831622
:1017C0000313610883120313C10083160313600817
:1017D00083120313C000831603135F0883120313DD
:1017E000BF00831603135E0883120313BE000A169C
:1017F0008A11DF210A128A150318FF2B002C0A2CEC
:101800004330F5008030F6000A168A1524260A12A5
:101810008A15AC2C83160313610883120313BD00D1
:1018200083160313600883120313BC00831603138B
:101830005F0883120313BB00831603135E08831231
:101840000313BA004130C100C830C0000030BF00EF
:101850000030BE000A168A11DF210A128A15031809
:10186000322C332C3D2C1C30F5008030F6000A164B
:101870008A1524260A128A15AC2C831603136108D4
:1018800083120313BD00831603136008831203132E
:10189000BC00831603135F0883120313BB00831677
:1018A00003135E0883120313BA004130C100F03005
:1018B000C0000030BF000030BE000A168A11DF21D0
:1018C0000A128A150318652C662C702C2930F50035
:1018D0008030F6000A168A1524260A128A15AC2CC6
:1018E00083160313610883120313BD0083160313C9
:1018F000600883120313BC00831603135F0883126E
:101900000313BB00831603135E0883120313BA008C
:101910004230C1000C30C0000030BF000030BE00BB
:101920000A168A11DF210A128A150318982C992C9D
:10193000A32C0F30F5008030F6000A168A152426F5
:101940000A128A15AC2C3630F5008030F6000A16E3
:101950008A1524260A128A15083083120313E90017
:101960009D30E8000530E700E70BB42CE80BB42C01
:10197000E90BB42C752A0A128A110028831203136A
:101980002308AD008030AD052308A8002807B30068
:10199000A21FCB2CCC2CCD2C331433080319D12C03
:1019A000D22CE12C330A031DD62CD72CDF2C00308F
:1019B000A3000030A2000030A1000030A000A21758
:1019C000E92C0030A3000030A2000030A10000305C
:1019D000A00027088039AD062708A8002807B20014
:1019E000A61FF32CF42CF52C321432080319F92C11
:1019F000FA2C092D320A031DFE2CFF2C072D003076
:101A0000A7000030A6000030A5000030A400A617F3
:101A1000112D0030A7000030A6000030A5000030D6
:101A2000A40032080319152D162D1B2D3308031D94
:101A30001A2D1B2D242D0030A3000030A2000030F1
:101A4000A1000030A000FF2F2008F00026080A1691
:101A50008A154A260A128A15710883120313B900DF
:101A60007008B8003808A800A901AA01AB012B082A
:101A7000B1002A08B0002908AF002808AE003908D4
:101A8000A800A901AA01AB012B08B7002A08B600DB
:101A90002908B5002808B4002108F00025080A1616
:101AA0008A154A260A128A15710883120313B9008F
:101AB0007008B8003808A800A901AA01AB012808DD
:101AC000AE07290803110318013E0319682DAF075B
:101AD0002A0803110318013E03196F2DB0072B08C4
:101AE00003110318013E0319762DB1073908A80028
:101AF000A901AA01AB012808B4072908031103189A
:101B0000013E0319842DB5072A0803110318013E6D
:101B100003198B2DB6072B0803110318013E031977
:101B2000922DB7072208F00024080A168A154A26C3
:101B30000A128A15710883120313B9007008B800DD
:101B40003808A800A901AA01AB012808AE07290896
:101B500003110318013E0319AE2DAF072A08031124
:101B60000318013E0319B52DB0072B080311031804
:101B7000013E0319BC2DB1073908A800A901AA012B
:101B8000AB012808B407290803110318013E031903
:101B9000CA2DB5072A0803110318013E0319D12DD8
:101BA000B6072B0803110318013E0319D82DB707F8
:101BB0000830A8000310AE0DAF0DB00DB10DA80B8D
:101BC000DA2D2108F00024080A168A154A260A127E
:101BD0008A15710883120313B9007008B800380819
:101BE000A8003908A900AA01AB012808AE072908F6
:101BF00003110318013E0319FE2DAF072A08031134
:101C00000318013E0319052EB0072B080311031812
:101C1000013E03190C2EB1072008F00025080A1612
:101C20008A154A260A128A15710883120313B9000D
:101C30007008B8003808A8003908A900AA01AB014B
:101C40002808AE07290803110318013E0319292E9D
:101C5000AF072A0803110318013E0319302EB007FD
:101C60002B0803110318013E0319372EB107083062
:101C7000A8000310AE0DAF0DB00DB10DA80B392E9D
:101C80002008F00024080A168A154A260A128A1526
:101C9000710883120313B9007008B8003808A8004F
:101CA0003908A900AA01AB012808AE0729080311C9
:101CB0000318013E03195D2EAF072A08031103180C
:101CC000013E0319642EB0072B0803110318013ECF
:101CD00003196B2EB1072108F00026080A168A1591
:101CE0004A260A128A15710883120313B900700874
:101CF000B8003808A8003908A900AA01AB012808D3
:101D0000B407290803110318013E0319882EB507EB
:101D10002A0803110318013E03198F2EB6072B085A
:101D200003110318013E0319962EB7072208F0008D
:101D300025080A168A154A260A128A15710883127E
:101D40000313B9007008B8003808A8003908A900C2
:101D5000AA01AB012808B407290803110318013EA2
:101D60000319B32EB5072A0803110318013E0319FE
:101D7000BA2EB6072B0803110318013E0319C12E12
:101D8000B7072208F00026080A168A154A260A1202
:101D90008A15710883120313B9007008B800380857
:101DA000A8003908A900AA01AB0108300310A80D4A
:101DB000A90DAA0DAB0DFF3E031DD62E2808B407B2
:101DC000290803110318013E0319E72EB5072A0855
:101DD00003110318013E0319EE2EB6072B08031159
:101DE0000318013E0319F52EB7072E08A8002F0887
:101DF000A9003008AA003108AB0018300310AB0C62
:101E0000AA0CA90CA80CFF3E031DFE2E2808B4073F
:101E1000290803110318013E03190F2FB5072A08DB
:101E200003110318013E0319162FB6072B080311DF
:101E30000318013E03191D2FB7070830A80003102F
:101E4000AE0DAF0DB00DB10DA80B1F2F330832072B
:101E5000A800A901A90D2808823EB8002908031886
:101E6000013EFF3EB900512F0130A8000310B40D10
:101E7000B50DB60DB70DA80B362FB11F402F412F52
:101E8000422F34140130A8000310AE0DAF0DB00D79
:101E9000B10DA80B442FFF30B8070318B90AFF3063
:101EA000B907B61F542F552F342FB201B11F592F28
:101EB0005A2F762FFF302E05A800FF302F05A900DE
:101EC000FF303005AA007F303105AB002B082A0413
:101ED0002904280403196D2F6E2F712F0130B200D1
:101EE000762F341C742F752F762F6E2F320803191E
:101EF0007A2F7B2FAC2F0130B4070030031801304C
:101F0000B507003003180130B60700300318013060
:101F1000B707371C8C2F8D2FAC2F3408A80035083D
:101F2000A9003608AA003708AB000130AC002B0D21
:101F3000AB0CAA0CA90CA80CAC0B972F2B08B70064
:101F40002A08B6002908B5002808B4000130B807EF
:101F50000318B90A0030B9073908803AFF00803009
:101F60007F02031DB52FFF303802031CB82FB92F95
:101F7000C42F7F3083120313B7008030B6000030C7
:101F8000B5000030B400F52F831203133908803AEE
:101F9000FF0080307F02031DCF2F0130380203186D
:101FA000D22FD32FDF2F003083120313B70000305E
:101FB000B6000030B5000030B400AD01F52F83123B
:101FC00003133808B300FF30B405FF30B5057F3088
:101FD000B6050030B705331CEE2FEF2FF02FB617E4
:101FE0003308A8000310280CB7002D08B7043708E1
:101FF000A3003608A2003508A1003408A00008009C
:10200000FF1B0A2883137F1883170008840A03190B
:10201000FF0A080010308A000408840A820700348E
:10202000543445344D3450343A34203425342E342D
:10203000313466342034433420340034463441345F
:102040004E343A344D34493444342034203420342E
:10205000203420340034463441344E343A344F3442
:1020600046344634203420342034203420340034A4
:10207000463441344E343A344C344F34573420349F
:1020800020342034203420340034463441344E345B
:102090003A344834493447344834203420342034E6
:1020A0002034003448344F345434203457344134CD
:1020B00052344E3449344E34473420340034693479
:0E20C0006E34663400346E3461346E34003495
:1020D200F31B6C286D286E287D287009F0007109A9
:1020E200F1007209F2007309F300F00A0319F10A10
:1020F2000319F20A0319F30A0800FA01FB01760830
:1021020084008313000884000A168A110A200A1622
:102112008A112A3A031D8E288F28BB28760884004C
:1021220001308007770884000008F8000230800739
:10213200780884000008FA00840A0008FB00CC2812
:102142007B08F1007A08F0000A30F2000030F30058
:102152000A168A15FF250A168A1179087007FA00ED
:102162000030031801307107FB007608840001304B
:102172008313800776088400000884000A168A11F7
:102182000A200A168A11D03EF9000A307902031C8D
:10219200CB28CC28A1287B08F7007A08F600080093
:1021A2000310720D730DF9007908031DD928DA287E
:1021B200E3280030F3000030F2000030F10000307C
:1021C200F00044297008F4007108F5007208F60066
:1021D2007308F7001F300310F70CF60CF50CF40C23
:1021E200FF3E031DEC287408F800F217FF30F005DB
:1021F200FF30F105FF30F2050030F3059630F902A9
:10220200F91F042905291D297908803A973E0318E8
:102212000B290C290D29DA2801300310F30CF20CDA
:10222200F10CF00CFF3E031D0E290130F907031DCE
:102232001B291C290D29342920307902031C22294B
:1022420023292F29DA280130F4000310F00DF10DB3
:10225200F20DF30DF40B26290130F9027908031D62
:10226200332934292429780803193829392944299A
:10227200F009F109F209F309F00A0319F10A031945
:10228200F20A0319F30A08007208730403194A29AF
:102292004B29512972087304031D502951295829C9
:1022A20070080A128A1103200A168A11DE2972089E
:1022B200093EF40073080318013E003EF50074085D
:1022C20084008317751C83130008F600840A000833
:1022D200F7007608770403196F297029A22972087A
:1022E200093EF40073080318013E003EF50074082D
:1022F20084008317751C83130008F600840A000803
:10230200F7007208023EF80073080318013E003E0F
:10231200F900780884008317791C83130008FA00F7
:10232200840A0008FB007B08803AFC007708803AA8
:102332007C02031D9E2976087A020318A129A2298C
:10234200DE29720884008317731C83130008F400CB
:10235200840A0008F5007208023EF60073080318AA
:10236200013E003EF700760884008317771C831332
:1023720000087407F9007508F8000318F80A801FAE
:10238200C329F8037808FA007908840083177A1CB5
:102392008313700880007208023EF4007308031869
:1023A200013E003EF500740884008317751C8313F8
:1023B20001308007840A0318800A08000030831263
:1023C20003133A05C20000303B05C30080303C05D0
:1023D200C4007F303D05C50045084404430442045F
:1023E200031DF429F529FD290030BD000030BC0091
:1023F2000030BB000030BA0000303E05C2000030A1
:102402003F05C30080304005C4007F304105C50050
:102412004508440443044204031D102A112A192AC0
:102422000030C1000030C0000030BF000030BE00EC
:10243200BD1F1C2A1D2A412A0030C2000030C300E1
:102442000030C4008030C5003A08C2023B08031CB9
:102452003B0F2C2A2D2AC3023C08031C3C0F322AB4
:10246200332AC4023D08031C3D0F382A392AC5020B
:102472004508BD004408BC004308BB004208BA003E
:10248200C11F442A452A692A0030C2000030C30015
:102492000030C4008030C5003E08C2023F08031C61
:1024A2003F0F542A552AC3024008031C400F5A2AE0
:1024B2005B2AC4024108031C410F602A612AC5023B
:1024C2004508C1004408C0004308BF004208BE00DE
:1024D2008030BD068030C10641083D02031D7B2AC3
:1024E20040083C02031D7B2A3F083B02031D7B2A56
:1024F2003E083A0203187E2A7F2A812A0310822A82
:1025020003140800831603134E0884008313000883
:1025120084000A168A110A200A168A11253A031D16
:10252200932A942A6C2B4E08840001308007E6011E
:10253200E701003083120313EE00FF30831603130A
:10254200E800FF30E9004E088400000884000A1603
:102552008A110A200A168A112E3A031DB12AB22ABA
:10256200C52A4E088400013080074E08F6004F0845
:10257200F7000A168A117E200A168A117708831636
:102582000313E9007608E8004E088400831300086C
:1025920083120313D800580884000A168A110A20ED
:1025A2000A168A11D700DD2A0130D807E82A6C30D2
:1025B200D700E82AD701E82A57084C3A0319D52A46
:1025C2002A3A0319D82A0A3A0319D52ADB2A5808C3
:1025D20084000A168A110A200A168A11663A031D15
:1025E200F32AF42A642B252B831603134F08840045
:1025F200000883120313D1000430800751088400BD
:102602000008D300840A0008D400840A0008D50018
:10261200840A0008D6002D2B831603134F0884006A
:10262200000883120313D10004308007510884008C
:102632000008D300840A0008D400840A0008D500E8
:10264200840A0008D6002D2B57084C3A03190D2B8B
:10265200203A0319F52A2D2B831603134E08840002
:10266200831203135808013E8000592B831603136B
:102672004C0883120313C600831603134D088312FA
:102682000313C7005608CB005508CA005408C900F6
:102692005308C800580884000A168A110A200A162C
:1026A2008A11CC000A168A118A230A168A11892BEA
:1026B200580884000A168A110A200A168A11663AF4
:1026C2000319372B642B831603134E088400013041
:1026D20083138007892B4E088400000884000A16A1
:1026E2008A110A200A168A1183120313D100D20119
:1026F2005108F0005208F100831603134C08F2004F
:102702004D08F3000A168A1145210A168A11642B14
:10271200080083160313C101831203134B088316A7
:102722000313C700831203134A0883160313C60058
:1027320083120313490883160313C500831203137C
:10274200480883160313C400470883120313BD000D
:1027520083160313460883120313BC008316031364
:10276200450883120313BB00831603134408831224
:102772000313BA000030C1000030C0000030BF00B7
:102782000030BE000A168A11DF210A168A110318C8
:10279200CB2BCC2BE72B013083160313C100470848
:1027A200F3004608F2004508F1004408F0000A125E
:1027B2008A1500200A168A11730883160313C700AC
:1027C2007208C6007108C5007008C400831603139E
:1027D200C201C3016708B2006608B10041080319CB
:1027E200F32BF42B042C4108031DF82BF92BFE2BA1
:1027F2002B30A6000030A700022C2D30A60000309E
:10280200A7002608C1004708F3004608F200450861
:10281200F1004408F0000A128A150B200A168A11E8
:1028220070037104031D162C172C5C2C83160313E2
:10283200410803191D2C1E2C2E2C41088316031748
:102842009000FF3083160313B1070318B20AFF305A
:10285200B2070130C2000030C3004208903EF000CF
:102862005030F1000A168A1584250A168A11FD30A5
:1028720083160313B1070318B20AFF30B20783129B
:1028820003134608A8004708A9009030AA0083163F
:102892000313320883120313AC00831603133108A7
:1028A20083120313AB000A168A1574270A168A11BB
:1028B2000A128A11E22F831603134708F30046080F
:1028C200F2004508F1004408F0000A128A150B20B4
:1028D2000A168A1170087104031D702C732C0A12D7
:1028E2008A11DA288316031341080319792C7A2CEA
:1028F2008A2C4108831603179000FF3083160313B6
:10290200B1070318B20AFF30B2070130C20000302B
:10291200C3004208903EF0005430F1000A168A15B6
:1029220084250A168A11382C83160313650883122C
:102932000313C00083160313640883120313BF003A
:1029420083160313630883120313BE008316031353
:10295200620883120313BD003008C0002F08BF00B5
:102962002E08BE002D08BD003D08B1003E08B20091
:102972003F08B3004008B40017300310B40CB30C86
:10298200B20CB10CFF3E031DBE2CFF303105B50069
:1029920000303205B6003508813EBB003608031808
:1029A200013EFF3EBC003C08803AFF0080307F02BF
:1029B200031DDD2C17303B02031CE02CE12CE22C22
:1029C200A32D83120313BC1BE72CE82C582D3B0AC2
:1029D200B100FF30B200FF30B3007F30B4000030EE
:1029E200B500F82C350DB50CB40CB30CB20CB10B10
:1029F200F32C3508BA003408B9003308B80032089D
:102A0200B70037083D05B10038083E05B200390865
:102A12003F05B3003A084005B400340833043204D9
:102A22003104031D152D162D172DE12C3D08B10083
:102A32003E08B2003F08B3004008B4001F30031044
:102A4200B40CB30CB20CB10CFF3E031D202D3408A4
:102A520033043204310403192F2D302D472D37084A
:102A6200BD07380803110318013E0319392DBE07AB
:102A7200390803110318013E0319402DBF073A0814
:102A820003110318013E0319472DC0073709B1008E
:102A92003809B2003909B3003A09B4003108BD055A
:102AA2003208BE053308BF053408C0059B2D3D081A
:102AB200B1003E08B2003F08B3004008B4001F3026
:102AC2000310B40CB30CB20CB10CFF3E031D612D0C
:102AD2003408330432043104031D702D712D7A2D14
:102AE2000030C0000030BF000030BE000030BD002A
:102AF2009B2D3D08B1003E08B2003F08B3004008DC
:102B0200B40001300310B10DB20DB30DB40DFF3E90
:102B1200031D832D34083304320431040319922D2A
:102B2200932D9B2DBF30C0008030BF000030BE000F
:102B32000030BD004008B0003F08AF003E08AE00C4
:102B42003D08AD0008007308F8008030F8057308EE
:102B520083120313A0002007FA00F21FB12DB22D39
:102B6200B32D7A147A080319B72DB82DC82D7A0A15
:102B7200031DBC2DBD2DC52D0030F3000030F20029
:102B82000030F1000030F000F217F301D02D0030D8
:102B9200F3000030F2000030F1000030F00077085E
:102BA200F9008030F905790878060319D92DDA2D54
:102BB200DB2D78177708A0002007F900F61FE22D19
:102BC200E32DE42D791479080319E82DE92DF92D67
:102BD200790A031DED2DEE2DF62D0030F7000030A1
:102BE200F6000030F5000030F400F617F701012E70
:102BF2000030F7000030F6000030F5000030F4003D
:102C02007A0879020318062E072E2B2E781F0A2E19
:102C12000B2E0D2E8030F8067A08FB007908FA0098
:102C22007B08F9007008FB007408F0007B08F400D0
:102C32007108FB007508F1007B08F5007208FB00C3
:102C42007608F2007B08F6007308FB007708F300B1
:102C52007B08F700FB017908A000A1012108A3006D
:102C62007A082002A200031CA3032308803AFF0073
:102C720080307F02031D3F2E1A302202031C422E97
:102C8200432E7A2E7308720471047004031D4A2EB7
:102C92004C2E01304D2E0030FB000030F30000308E
:102CA200F2000030F1000030F0007908FA00802EC6
:102CB2007B1C5C2E5D2E662E7B0883120313A00004
:102CC2000310200C0138FB00682E0310FB0C701C53
:102CD2006B2E6C2E6D2EFB17013083120313A00096
:102CE200730DF30CF20CF10CF00CA00B712E0130F1
:102CF200FA0779087A02031C7F2E802E592E781B40
:102D0200832E842ECF2E7A08031D882E892E922E92
:102D12000030F3000030F2000030F1000030F0002B
:102D2200FF2F7408F007750803110318013E0319F9
:102D32009B2EF107760803110318013E0319A22EF8
:102D4200F207770803110318013E0319A92EF307AE
:102D5200731CAC2EAD2E872F7B1CB02EB12EBA2E3B
:102D62007B0883120313A0000310200C0138FB0020
:102D7200BC2E0310FB0C701CBF2EC02EC12EFB17E5
:102D8200013083120313A000730DF30CF20CF10C4B
:102D9200F00CA00BC52E0130FA07872F7308803A7A
:102DA200FF007708803A7F02031DE12E7608720247
:102DB200031DE12E75087102031DE12E74087002D5
:102DC2000318E42EE52E3E2FFF3083120313A000DA
:102DD200FF30A100FF30A200FF30A3007408A4005E
:102DE2007508A5007608A6007708A7007008A40257
:102DF2007108031C710FFE2EFF2EA5027208031C20
:102E0200720F042F052FA6027308031C730F0A2FDB
:102E12000B2FA7022408A00725080318250F122F3D
:102E2200132FA10726080318260F182F192FA20700
:102E320027080318270AA3072308F3002208F20031
:102E42002108F1002008F0008030F8067B03FF3AE9
:102E5200FB007B08031D2E2F2F2F4C2F0130F00774
:102E6200003003180130F107003003180130F20777
:102E7200003003180130F3074C2F7408F002750874
:102E8200031C750FF1027608031C760FF202770815
:102E9200031C770FF3027308720471047004031D9C
:102EA200532F542F832F7B08031D582F592F832F05
:102EB2000030F3000030F2000030F1000030F0008A
:102EC200FF2F013083120313A0000310F00DF10D48
:102ED200F20DF30DA00B662FFB1F702F712F722FB7
:102EE20070147B1C752F762F7A2F03147B0DFB0039
:102EF2007C2F0310FB0D7A080319802F812F832F5B
:102F02000130FA02F21F862F872F622FF901FB1F71
:102F12008B2F8C2F9A2F7B087F390319912F922F99
:102F2200952F0130F9009A2F701C982F992F9A2F04
:102F3200922F790803199E2F9F2FD32F0130F0076C
:102F4200003003180130F107003003180130F20796
:102F5200003003180130F307731CB02FB12FD32FA9
:102F6200700883120313A0007108A1007208A20066
:102F72007308A3000130A400230DA30CA20CA10C22
:102F8200A00CA40BBD2F2308F3002208F200210895
:102F9200F1002008F0007A0A0319D02FD12FD32F85
:102FA2000130FA077A0A0319D72FD82FDD2F7A08B2
:102FB200031DDC2FDD2FEB2F0030F3000030F20079
:102FC2000030F1000030F0007A08031DE92FEA2FEB
:102FD200EB2FF8017A1CEE2FEF2FF12FF217F32FC0
:102FE2007F30F2057A0883120313A0000310200C2D
:0E2FF200F300F81FFD2FFE2FFF2FF31708002E
:103AAE0064008001840A0406031900340406582DAC
:103ABE004130831203139F008030831603139F003F
:103ACE000800831603130711F93092000C3083128D
:103ADE000313970004309200080083120313861418
:103AEE000D30F100FB30F000F00B7B2DF10B7B2D38
:103AFE00802D83120313861008007008F300013026
:103B0E00F107FF30710784000A168A110A200A167F
:103B1E008A15F2007308F30A840072088317800076
:103B2E000008031D9B2D9C2D862D08007108F300A7
:103B3E007008F2000310F30CF20C0310F30CF20CED
:103B4E007208831203139500CF309705700803395E
:103B5E00F20003300310F20DFF3E031DB12D0310D2
:103B6E00720D970408007108F6007008F500CC2D50
:103B7E007608840083170008F4000130F6077508F4
:103B8E008400740880000130F5070130F202003025
:103B9E00031CF303F302720A031DD92D730A031DCE
:103BAE00D92DDA2DBF2D0800803083120313BD06E8
:103BBE004108F3004008F2003F08F1003E08F00013
:103BCE003D08F7003C08F6003B08F5003A08F40003
:103BDE000A168A11A4250A168A157308831203136E
:103BEE00BD007208BC007108BB007008BA00080066
:103BFE00F401F501701C042E052E0B2E7208F4072D
:103C0E000318F50A7308F50701300310F20DF30DD2
:103C1E00FF3E031D0C2E01300310F10CF00CFF3E85
:103C2E00031D132E70087104031D1E2E1F2E012E50
:103C3E007508F1007408F0000800392E7608FF00B0
:103C4E00750884000A168A1100200A168A150A16AB
:103C5E008A151A270A168A150130F5070318F60A6F
:103C6E000030F607760883120313FF0075088400F0
:103C7E000A168A1100200A168A15003A031D482ECC
:103C8E00492E252E0800F800F401F5017008F20007
:103C9E00F3017208F6007308F700781C572E582EA1
:103CAE005E2E7608F4070318F50A7708F50701303B
:103CBE000310F60DF70DFF3E031D5F2E0310F80CDB
:103CCE007808031D6B2E6C2E542E7508F1007408A7
:103CDE00F00008008230F600DD30F500F50B752E91
:103CEE00F60B752E7A2E02300A168A15ED260A1656
:103CFE008A1528300A168A15ED260A168A150C30F2
:103D0E000A168A15ED260A168A1506300A168A151F
:103D1E00ED260A168A1501300A168A15ED260A16A0
:103D2E008A15080083160313520883120313D90051
:103D3E00AF2E831603135008CC005108CD00593016
:103D4E00CE005308CF000A168A1183220A168A154E
:103D5E0083120313590884000A168A110A200A16C0
:103D6E008A15003A031DBC2EBD2EA02E83160313FA
:103D7E00D001D101080083120313A601A701DF2E83
:103D8E002508A300A4012308F0002408F10021084F
:103D9E00F2002208F3000A168A1145210A168A1526
:103DAE00013083120313A6070318A70A0030A707D2
:103DBE0026082007A3002308840083170008A50007
:103DCE002508031DEB2EEC2EC72E0800F4008312DF
:103DDE00031306100F3086057408F03986040A1690
:103DEE008A1574250A168A150F3083120313860559
:103DFE007408F20003300310F20DFF3E031D022F74
:103E0E000310720DF03986040A168A1574250A16E7
:103E1E008A150D30F300FB30F200F20B142FF30B6A
:103E2E00142F192F0800F4008312031306140F30F9
:103E3E0086057408F03986040A168A1574250A1642
:103E4E008A150F308312031386057408F2000330AF
:103E5E000310F20DFF3E031D2F2F0310720DF039CC
:103E6E0086040A168A1574250A168A150D30F30073
:103E7E00FB30F200F20B412FF30B412F462F0800BF
:103E8E00D63083120313DB008316031354088312F8
:103E9E000313DC000130DD00DE01DF01E501E60188
:103EAE005C3083160313D0000030D1005508D200C9
:103EBE005B30D3000A168A1599260A168A158312C4
:103ECE0003135E0883160313540783120313DA00D9
:103EDE005A08840083178001080083120313AC1F55
:103EEE00792F7A2F7C2FAB01AC01AD01AE01962F4D
:103EFE002030F0000030F100831203132808F20086
:103F0E002908F3000A168A1145210A168A1501306E
:103F1E0083120313AD070318AE0A0030AE072E0846
:103F2E00803AFD002C08803A7D02031DA02F2B083D
:103F3E002D02031CA32FA42F7F2F831203132A08F5
:103F4E00A0002808A1002908A2000A168A15C22678
:103F5E000A168A15080000307005F8000030710549
:103F6E00F90080307205FA007F307305FB007B0884
:103F7E007A0479047804031DC52FC62FCE2F003086
:103F8E00F3000030F2000030F1000030F00000309D
:103F9E007405F80000307505F90080307605FA00DA
:103FAE007F307705FB007B087A0479047804031DC3
:103FBE00E12FE22FEA2F0030F7000030F60000303C
:103FCE00F5000030F40077087306031DF82F76080D
:103FDE007206031DF82F75087106031DF82F74085D
:103FEE0070060319FB2FFC2FFE2F0310FF2F031457
:023FFE000800B9
:02400E00723FFF
:00000001FF
